:0200000030C00E
:10000200FECFFDCFFCCFFBCFFACFF9CFF8CFF7CFA2
:10001200F6CFF5CF9CC0F3CFCFC0F1CFF0CFEFCF6B
:10002200EECFEDCF1027E80364000A0001000010B4
:1000320000011000010000000000000000000000AC
:100042000000630200000063010000006300000082
:1000520000000100020038000A0004003A0000001B
:10006200F894EE27ECBBF1E0FBBFEBBFE5BF8DE000
:10007200A2E0BB27ED938A95E9F780E094E0A0E641
:10008200ED930197E9F7E4E5F0E08591959100970A
:1000920061F0A591B59105901590BF01F001059011
:1000A2000D920197E1F7FB01F0CFEFE5EDBFE4E040
:1000B200EEBFC0E6D1E0C5C0BA93AA933AD2149675
:1000C200E0E0EC9339D221F417B23DD2E7BB0BC08A
:1000D20041D221F414B237D2E4BB05C03FD219F4A5
:1000E20011B231D2E1BB25D21396E1E0EC932DC0DF
:1000F20039D221F03ED2E481E03009F00FC01CD2A7
:1001020011F43AD207C026D211F43ED203C026D24D
:1001120009F442D20ED21496E1E0EC9316C022D238
:1001220021F027D2E481E03009F40FC005D211F4A6
:1001320023D207C00FD211F427D203C00FD209F481
:100142002BD2F7D11496E0E0EC9322960895EA932D
:10015200FA93EFB7EA939AD21BB10CB1E12FEC718B
:1001620089F4E42D4394F0E0E657FE4F0083E8E083
:10017200E41509F44424C394E8E0EC1519F4CC2402
:10018200689420F809911991E991EFBFF991E991E9
:1001920018951A93CC20F1F3ED2DD394F0E0E657A5
:1001A200FE4F1081E8E0ED1509F4DD24F894CA94BD
:1001B2007894E12F19910895AA93EA93FA93EFB7ED
:1001C200EA93F2D1E03099F0EFD1E150E0939C0153
:1001D200E0919B01EF5FE0939B01E9D1E081ECB9F3
:1001E200A0919B01A83019F4E0E0E0939B01E99112
:1001F200EFBFF991E991A9911895AA93A0919C0159
:10020200A830E1F3F894D0D1E03011F45D9914C034
:10021200E0919A01EF5FE0939A01C9D1A881A0838E
:10022200A0919A01A83019F4E0E0E0939A01BCD1C0
:10023200EF5FE0939C0102C0E881ECB978942196CB
:1002420008952F978FE0A0E0B0E0E4E4F0E021D23F
:10025200DE011A9631DFDE0115962EDFDE012CDF7C
:10026200FE013A96A0E6B1E085E006D2A5E6B1E04D
:10027200FE01359685E000D2AAE6B1E0FE0185E0F6
:10028200FBD1EFE0E7BBE0E0E8BBE8E3E5BBE0E0A1
:10029200E3BFE2BFE1EAEFBDE5E0EEBDE0E0EDBDC8
:1002A200ECBDE7BDE6BDEBBDEABDE9BDE8BDE2BD23
:1002B200E5BDE4BDE3BDE9BFE5BFEBB9E8EDEAB9F1
:1002C200E6E8E0BDE0E0E0BDE7E6E9B9E0E8E8B98C
:1002D200E0E0E0BFE6B9EDB9E6BF789409D1DFD03E
:1002E200E1E3E51511F409D004C0E2E3E51509F4F0
:1002F20010D0E0E35E2EF2CFFFCFE0918001F091CB
:1003020081015AD119F45CD1F3DE02C059D107DF61
:100312000895AA24BB24E2E0F0E04F01861497047A
:1003220000F5E2E0F0E0E815F90529F455D1A4E67C
:10033200B0E096D110C0E3E0F0E0E815F90529F449
:100342004BD1AAE0B0E08CD106C0E4E0F0E0E815C1
:10035200F90519F441D1AE0EBF1EF40131964F01D9
:10036200DDCF43D1119709F04BC044D1309711F43E
:10037200C09A04C03FD120D109F4C0980A2C0B289E
:1003820059F438D119D111F4E0E004C033D13097D7
:1003920011F4EAEFEABD33C032D159F42BD10CD1BA
:1003A20011F4E4E604C026D1309711F4E6E9EABD7F
:1003B20026C02AD159F41ED1FFD011F4E6E904C0B7
:1003C20019D1309711F4E4E6EABD19C022D159F4EB
:1003D20011D1F2D011F4E8EC04C00CD1309711F431
:1003E200E2E3EABD0CC01AD151F404D1E5D011F414
:1003F200EAEF04C0FFD0309711F4E0E0EABD4EC04E
:10040200F4D0129709F04AC0F5D0309711F4C39A8C
:1004120004C0F0D0D1D009F4C3980A2C0B2859F4A7
:10042200E9D0CAD011F4E0E004C0E4D0309711F46E
:10043200EAEFE8BD33C0E3D059F4DCD0BDD011F40B
:10044200E4E604C0D7D0309711F4E6E9E8BD26C04F
:10045200DBD059F4CFD0B0D011F4E6E904C0CAD051
:10046200309711F4E4E6E8BD19C0D3D059F4C2D0F4
:10047200A3D011F4E8EC04C0BDD0309711F4E2E34C
:10048200E8BD0CC0CBD051F4B5D096D011F4EAEF50
:1004920004C0B0D0309711F4E0E0E8BD089579DEF1
:1004A2005E2EC1D03F018824992486149704F8F463
:1004B200E1E3E51551F4F401AEE7B1E0B8D0FF9302
:1004C200EF93B1D0AF91BF910CC0E2E3E51559F4BF
:1004D200F401A2E8B1E0ABD0FF93EF93A4D0AF91C7
:1004E200BF91ED93FC93F40131964F01DECF089555
:1004F200E3B3E095E87019F09FD0A1E302C09CD06D
:10050200A0E37BDEE3B3E095E07119F099D0A1E3BB
:1005120002C096D0A0E371DEE3B3E095E07219F079
:1005220093D0A1E302C090D0A0E367DEA5E665DE2A
:100532000895A881B9810895FCDFEC91F0E0E236DC
:10054200A0E0FA070895E881F981E181A1E080D075
:10055200E1290895E336A0E0FA070895E436A0E021
:10056200FA070895BA93AA93E881F981E381E0300A
:100572000895E881F981089518B2FBDFE181A1E0D5
:1005820067D0E125E8BB089515B2F3DFE181A1E070
:100592005FD0E125E5BB089512B2EBDFE181A1E076
:1005A20057D0E125E2BB0895E0919C010895E15006
:1005B200F0E0EE56FE4F0895E130A0E0FA0708950C
:1005C200E0917E01F0917F013197A5E0B0E048D043
:1005D200E05AFE4FDF010895F401A2E8B1E0EE0F08
:1005E200FF1FAE0FBF1F44D00895A0918201B091AA
:1005F20083010895E0918401F09185010895E4E674
:10060200F0E0EA15FB050895E6E9F0E0EA15FB05DE
:100612000895E8ECF0E0EA15FB050895EAEFF0E052
:10062200EA15FB050895B5DDF0E0F0970895EE0FA9
:10063200FF1FEA0FFB1F0895A3E7DFDDA1E3DDCD76
:10064200A3E7DBDDA2E3D9CDA3E7D7DDA3E3D5CDD5
:10065200EE230E2EEA2F19F0EE0F0A94E9F7089511
:10066200FA9FF02DEB9FF00DEA9FE02DF10D08951A
:10067200ED91FC91119708959927EF93FF93619162
:100682006D930197E1F7FF91EF9108951A930A9301
:100692000895AC0FBD1F05900D928A95E1F708955C
:00000001FF
