:0200000035C009
:10000200FECFFDCFFCCFFBCFFACFF9CFF8CFF7CFA2
:10001200F6CFF5CFA0C0F3CFCCC0F1CFF0CFEFCF6A
:10002200EECFEDCF1027E80364000A0001000010B4
:100032000001100001000000000000000000630544
:10004200000000630400000063030000006302007C
:1000520000006301000000630000000001000200D4
:100062003800060004003A000000F894EE27ECBBCA
:10007200F1E0FBBFEBBFE5BF8DE0A2E0BB27ED9354
:100082008A95E9F780E094E0A0E6ED930197E9F71D
:10009200EEE5F0E085919591009761F0A591B5911B
:1000A20005901590BF01F00105900D920197E1F7BF
:1000B200FB01F0CFEFE5EDBFE4E0EEBFC0E6D1E03B
:1000C2008CC030D132D11496E0E0EC9331D121F4DE
:1000D20017B235D1E7BB0BC039D121F414B22FD1FD
:1000E200E4BB05C037D119F411B229D1E1BB1DD14E
:1000F2001396E1E0EC932DC031D121F035D1E481AA
:10010200E03009F00FC014D111F431D107C01ED173
:1001120011F435D103C01ED109F439D106D1149698
:10012200E1E0EC9316C01AD121F01ED1E481E03057
:1001320009F40FC0FDD011F41AD107C007D111F490
:100142001ED103C007D109F422D1EFD01496E0E00A
:10015200EC932296089523D136D11BB10CB1E12F35
:10016200EC7189F4E52D5394F0E0EE59FE4F0083D3
:10017200E8E0E51509F455247394E8E0E71519F46D
:100182007724689420F80991199122C01A93772054
:10019200F1F3E42D4394F0E0EE59FE4F1081E8E0D4
:1001A200E41509F44424F8947A947894E12F19918F
:1001B2000895F5D0882061F08A94E92D9394F0E0B7
:1001C200E659FE4FE081ECB9E8E0E91509F499241B
:1001D200E991EFBFF991E99118956E978EE1A0E050
:1001E200B0E0E0E4F0E0F5D0DE0159966ADFDE012E
:1001F200549667DFDE011F9664DFDE011A9661DF27
:10020200DE0115965EDFDE015CDFE0E0E3BFE2BF08
:10021200EFBDEEBDEDBDECBDE7BDE6BDEBBDEABD9C
:10022200E9BDE8BDE2BDE5BDE4BDE3BDE9BFE5BFB3
:10023200EBB9E8EDEAB9E6E8E0BDE0E0E0BDE7E60B
:10024200E9B9E0E8E8B9E0E0E0BFE6B9EDB9E6BF58
:100252007894A0E6B1E04DD0A7D0A13351F4A7D055
:1002620021F4DE01599648DF03C0DE0159965BDFB7
:100272003EC09AD0A23351F49AD021F4DE015496B2
:100282003BDF03C0DE0154964EDF31C08DD0A33375
:1002920051F48DD021F4DE011F962EDF03C0DE0162
:1002A2001F9641DF24C080D0A43351F480D021F4C2
:1002B200DE011A9621DF03C0DE011A9634DF17C071
:1002C20073D0A53351F473D021F4DE01159614DFF7
:1002D20003C0DE01159627DF0AC066D0A63339F4C3
:1002E20066D019F4DE0108DF02C0DE011CDFB1CFE7
:1002F200FFCF18D068D000E010E00230E0E01E0727
:1003020074F4F801AA81BB81EA0FFB1FFF93EF93FC
:100312003DDFAF91BF91EC930F5F1F4FEECF56D0F1
:1003220024960895BA93AA930895A881B98108954D
:10033200FCDFEC91F0E0E236A0E0FA070895E881F4
:10034200F981E181A1E037D0E1290895E336A0E007
:10035200FA070895E436A0E0FA070895E3DFE8819A
:10036200F981E381E0300895E881F981089518B2B6
:10037200FBDFE181A1E01FD0E125E8BB089515B2C2
:10038200F3DFE181A1E017D0E125E5BB089512B2C8
:10039200EBDFE181A1E00FD0E125E2BB0895EA9312
:1003A200FA93EFB7EA930895A09160010895A0919E
:1003B2006101A1330895EE230E2EEA2F19F0EE0FFC
:1003C2000A94E9F708951A930A9308951981088106
:1003D2000895AC0FBD1F05900D928A95E1F708951F
:00000001FF
